{
  "contractName": "Dex",
  "abi": [
    {
      "anonymous": false,
      "inputs": [
        {
          "indexed": true,
          "internalType": "address",
          "name": "previousOwner",
          "type": "address"
        },
        {
          "indexed": true,
          "internalType": "address",
          "name": "newOwner",
          "type": "address"
        }
      ],
      "name": "OwnershipTransferred",
      "type": "event"
    },
    {
      "anonymous": false,
      "inputs": [
        {
          "components": [
            {
              "internalType": "uint256",
              "name": "id",
              "type": "uint256"
            },
            {
              "internalType": "address",
              "name": "trader",
              "type": "address"
            },
            {
              "internalType": "enum Dex.Side",
              "name": "side",
              "type": "uint8"
            },
            {
              "internalType": "bytes32",
              "name": "ticker",
              "type": "bytes32"
            },
            {
              "internalType": "uint256",
              "name": "amount",
              "type": "uint256"
            },
            {
              "internalType": "uint256",
              "name": "price",
              "type": "uint256"
            },
            {
              "internalType": "uint256",
              "name": "filled",
              "type": "uint256"
            }
          ],
          "indexed": false,
          "internalType": "struct Dex.Order",
          "name": "",
          "type": "tuple"
        }
      ],
      "name": "orderAfterProcessed",
      "type": "event"
    },
    {
      "anonymous": false,
      "inputs": [
        {
          "components": [
            {
              "internalType": "uint256",
              "name": "id",
              "type": "uint256"
            },
            {
              "internalType": "address",
              "name": "trader",
              "type": "address"
            },
            {
              "internalType": "enum Dex.Side",
              "name": "side",
              "type": "uint8"
            },
            {
              "internalType": "bytes32",
              "name": "ticker",
              "type": "bytes32"
            },
            {
              "internalType": "uint256",
              "name": "amount",
              "type": "uint256"
            },
            {
              "internalType": "uint256",
              "name": "price",
              "type": "uint256"
            },
            {
              "internalType": "uint256",
              "name": "filled",
              "type": "uint256"
            }
          ],
          "indexed": false,
          "internalType": "struct Dex.Order",
          "name": "",
          "type": "tuple"
        }
      ],
      "name": "orderBeforeProcessed",
      "type": "event"
    },
    {
      "anonymous": false,
      "inputs": [
        {
          "components": [
            {
              "internalType": "uint256",
              "name": "id",
              "type": "uint256"
            },
            {
              "internalType": "address",
              "name": "trader",
              "type": "address"
            },
            {
              "internalType": "enum Dex.Side",
              "name": "side",
              "type": "uint8"
            },
            {
              "internalType": "bytes32",
              "name": "ticker",
              "type": "bytes32"
            },
            {
              "internalType": "uint256",
              "name": "amount",
              "type": "uint256"
            },
            {
              "internalType": "uint256",
              "name": "price",
              "type": "uint256"
            },
            {
              "internalType": "uint256",
              "name": "filled",
              "type": "uint256"
            }
          ],
          "indexed": false,
          "internalType": "struct Dex.Order",
          "name": "",
          "type": "tuple"
        }
      ],
      "name": "orderPopped",
      "type": "event"
    },
    {
      "inputs": [
        {
          "internalType": "bytes32",
          "name": "ticker",
          "type": "bytes32"
        },
        {
          "internalType": "address",
          "name": "tokenAddress",
          "type": "address"
        }
      ],
      "name": "addToken",
      "outputs": [],
      "stateMutability": "nonpayable",
      "type": "function"
    },
    {
      "inputs": [
        {
          "internalType": "address",
          "name": "",
          "type": "address"
        },
        {
          "internalType": "bytes32",
          "name": "",
          "type": "bytes32"
        }
      ],
      "name": "balances",
      "outputs": [
        {
          "internalType": "uint256",
          "name": "",
          "type": "uint256"
        }
      ],
      "stateMutability": "view",
      "type": "function",
      "constant": true
    },
    {
      "inputs": [
        {
          "internalType": "uint256",
          "name": "amount",
          "type": "uint256"
        },
        {
          "internalType": "bytes32",
          "name": "ticker",
          "type": "bytes32"
        }
      ],
      "name": "deposit",
      "outputs": [],
      "stateMutability": "nonpayable",
      "type": "function"
    },
    {
      "inputs": [],
      "name": "depositEth",
      "outputs": [],
      "stateMutability": "payable",
      "type": "function",
      "payable": true
    },
    {
      "inputs": [],
      "name": "nextOrderId",
      "outputs": [
        {
          "internalType": "uint256",
          "name": "",
          "type": "uint256"
        }
      ],
      "stateMutability": "view",
      "type": "function",
      "constant": true
    },
    {
      "inputs": [
        {
          "internalType": "bytes32",
          "name": "",
          "type": "bytes32"
        },
        {
          "internalType": "uint256",
          "name": "",
          "type": "uint256"
        },
        {
          "internalType": "uint256",
          "name": "",
          "type": "uint256"
        }
      ],
      "name": "orderBook",
      "outputs": [
        {
          "internalType": "uint256",
          "name": "id",
          "type": "uint256"
        },
        {
          "internalType": "address",
          "name": "trader",
          "type": "address"
        },
        {
          "internalType": "enum Dex.Side",
          "name": "side",
          "type": "uint8"
        },
        {
          "internalType": "bytes32",
          "name": "ticker",
          "type": "bytes32"
        },
        {
          "internalType": "uint256",
          "name": "amount",
          "type": "uint256"
        },
        {
          "internalType": "uint256",
          "name": "price",
          "type": "uint256"
        },
        {
          "internalType": "uint256",
          "name": "filled",
          "type": "uint256"
        }
      ],
      "stateMutability": "view",
      "type": "function",
      "constant": true
    },
    {
      "inputs": [],
      "name": "owner",
      "outputs": [
        {
          "internalType": "address",
          "name": "",
          "type": "address"
        }
      ],
      "stateMutability": "view",
      "type": "function",
      "constant": true
    },
    {
      "inputs": [],
      "name": "renounceOwnership",
      "outputs": [],
      "stateMutability": "nonpayable",
      "type": "function"
    },
    {
      "inputs": [
        {
          "internalType": "uint256",
          "name": "",
          "type": "uint256"
        }
      ],
      "name": "tokenList",
      "outputs": [
        {
          "internalType": "bytes32",
          "name": "",
          "type": "bytes32"
        }
      ],
      "stateMutability": "view",
      "type": "function",
      "constant": true
    },
    {
      "inputs": [
        {
          "internalType": "bytes32",
          "name": "",
          "type": "bytes32"
        }
      ],
      "name": "tokenMapping",
      "outputs": [
        {
          "internalType": "bytes32",
          "name": "ticker",
          "type": "bytes32"
        },
        {
          "internalType": "address",
          "name": "tokenAddress",
          "type": "address"
        }
      ],
      "stateMutability": "view",
      "type": "function",
      "constant": true
    },
    {
      "inputs": [
        {
          "internalType": "address",
          "name": "newOwner",
          "type": "address"
        }
      ],
      "name": "transferOwnership",
      "outputs": [],
      "stateMutability": "nonpayable",
      "type": "function"
    },
    {
      "inputs": [
        {
          "internalType": "uint256",
          "name": "amount",
          "type": "uint256"
        },
        {
          "internalType": "bytes32",
          "name": "ticker",
          "type": "bytes32"
        }
      ],
      "name": "withdraw",
      "outputs": [],
      "stateMutability": "nonpayable",
      "type": "function"
    },
    {
      "inputs": [
        {
          "internalType": "bytes32",
          "name": "ticker",
          "type": "bytes32"
        },
        {
          "internalType": "enum Dex.Side",
          "name": "side",
          "type": "uint8"
        }
      ],
      "name": "getOrderBook",
      "outputs": [
        {
          "components": [
            {
              "internalType": "uint256",
              "name": "id",
              "type": "uint256"
            },
            {
              "internalType": "address",
              "name": "trader",
              "type": "address"
            },
            {
              "internalType": "enum Dex.Side",
              "name": "side",
              "type": "uint8"
            },
            {
              "internalType": "bytes32",
              "name": "ticker",
              "type": "bytes32"
            },
            {
              "internalType": "uint256",
              "name": "amount",
              "type": "uint256"
            },
            {
              "internalType": "uint256",
              "name": "price",
              "type": "uint256"
            },
            {
              "internalType": "uint256",
              "name": "filled",
              "type": "uint256"
            }
          ],
          "internalType": "struct Dex.Order[]",
          "name": "",
          "type": "tuple[]"
        }
      ],
      "stateMutability": "view",
      "type": "function",
      "constant": true
    },
    {
      "inputs": [
        {
          "internalType": "enum Dex.Side",
          "name": "side",
          "type": "uint8"
        },
        {
          "internalType": "bytes32",
          "name": "ticker",
          "type": "bytes32"
        },
        {
          "internalType": "uint256",
          "name": "amount",
          "type": "uint256"
        },
        {
          "internalType": "uint256",
          "name": "price",
          "type": "uint256"
        }
      ],
      "name": "createLimitOrder",
      "outputs": [],
      "stateMutability": "nonpayable",
      "type": "function"
    },
    {
      "inputs": [
        {
          "internalType": "enum Dex.Side",
          "name": "side",
          "type": "uint8"
        },
        {
          "internalType": "bytes32",
          "name": "ticker",
          "type": "bytes32"
        },
        {
          "internalType": "uint256",
          "name": "amount",
          "type": "uint256"
        }
      ],
      "name": "createMarketOrder",
      "outputs": [],
      "stateMutability": "nonpayable",
      "type": "function"
    }
  ],
  "bytecode": "0x608060405260006004553480156200001657600080fd5b50620000376200002b6200003d60201b60201c565b6200004560201b60201c565b62000109565b600033905090565b60008060009054906101000a900473ffffffffffffffffffffffffffffffffffffffff169050816000806101000a81548173ffffffffffffffffffffffffffffffffffffffff021916908373ffffffffffffffffffffffffffffffffffffffff1602179055508173ffffffffffffffffffffffffffffffffffffffff168173ffffffffffffffffffffffffffffffffffffffff167f8be0079c531659141344cd1fd0a4f28419497f9722a3daafe3b4186f6b6457e060405160405180910390a35050565b61376180620001196000396000f3fe6080604052600436106100e85760003560e01c80638da5cb5b1161008a578063a8d2021a11610059578063a8d2021a146102da578063ba58ea6814610303578063c9630cb014610340578063f2fde38b14610369576100e8565b80638da5cb5b146102205780639776aacf1461024b57806399ec2f1c146102745780639ead72221461029d576100e8565b8063439370b1116100c6578063439370b114610198578063667cb4ba146101a25780636f3b62f9146101e0578063715018a614610209576100e8565b80630bb431b6146100ed5780631f14df69146101305780632a58b3301461016d575b600080fd5b3480156100f957600080fd5b50610114600480360381019061010f9190612701565b610392565b604051610127979695949392919061282a565b60405180910390f35b34801561013c57600080fd5b50610157600480360381019061015291906128c5565b61042b565b6040516101649190612905565b60405180910390f35b34801561017957600080fd5b50610182610450565b60405161018f9190612905565b60405180910390f35b6101a0610456565b005b3480156101ae57600080fd5b506101c960048036038101906101c49190612920565b6104df565b6040516101d792919061294d565b60405180910390f35b3480156101ec57600080fd5b506102076004803603810190610202919061299b565b610523565b005b34801561021557600080fd5b5061021e610f71565b005b34801561022c57600080fd5b50610235610f85565b6040516102429190612a02565b60405180910390f35b34801561025757600080fd5b50610272600480360381019061026d9190612a1d565b610fae565b005b34801561028057600080fd5b5061029b60048036038101906102969190612a5d565b611075565b005b3480156102a957600080fd5b506102c460048036038101906102bf9190612ab0565b611ded565b6040516102d19190612add565b60405180910390f35b3480156102e657600080fd5b5061030160048036038101906102fc9190612af8565b611e11565b005b34801561030f57600080fd5b5061032a60048036038101906103259190612b38565b61206b565b6040516103379190612cf1565b60405180910390f35b34801561034c57600080fd5b5061036760048036038101906103629190612af8565b6121c4565b005b34801561037557600080fd5b50610390600480360381019061038b9190612d13565b6124c3565b005b600560205282600052604060002060205281600052604060002081815481106103ba57600080fd5b906000526020600020906006020160009250925050508060000154908060010160009054906101000a900473ffffffffffffffffffffffffffffffffffffffff16908060010160149054906101000a900460ff16908060020154908060030154908060040154908060050154905087565b6003602052816000526040600020602052806000526040600020600091509150505481565b60045481565b34600360003373ffffffffffffffffffffffffffffffffffffffff1673ffffffffffffffffffffffffffffffffffffffff16815260200190815260200160002060007f4554480000000000000000000000000000000000000000000000000000000000815260200190815260200160002060008282546104d69190612d6f565b92505081905550565b60016020528060005260406000206000915090508060000154908060010160009054906101000a900473ffffffffffffffffffffffffffffffffffffffff16905082565b60006001811115610537576105366127a4565b5b84600181111561054a576105496127a4565b5b036105d857808261055b9190612da3565b600360003373ffffffffffffffffffffffffffffffffffffffff1673ffffffffffffffffffffffffffffffffffffffff16815260200190815260200160002060007f455448000000000000000000000000000000000000000000000000000000000081526020019081526020016000205410156105d757600080fd5b5b6001808111156105eb576105ea6127a4565b5b8460018111156105fe576105fd6127a4565b5b036106815781600360003373ffffffffffffffffffffffffffffffffffffffff1673ffffffffffffffffffffffffffffffffffffffff16815260200190815260200160002060007f4c494e4b00000000000000000000000000000000000000000000000000000000815260200190815260200160002054101561068057600080fd5b5b60006005600085815260200190815260200160002060008660018111156106ab576106aa6127a4565b5b81526020019081526020016000209050806040518060e0016040528060045481526020013373ffffffffffffffffffffffffffffffffffffffff1681526020018760018111156106fe576106fd6127a4565b5b8152602001868152602001858152602001848152602001600081525090806001815401808255809150506001900390600052602060002090600602016000909190919091506000820151816000015560208201518160010160006101000a81548173ffffffffffffffffffffffffffffffffffffffff021916908373ffffffffffffffffffffffffffffffffffffffff16021790555060408201518160010160146101000a81548160ff021916908360018111156107bf576107be6127a4565b5b0217905550606082015181600201556080820151816003015560a0820151816004015560c0820151816005015550506004600081548092919061080190612dfd565b91905055506000600181111561081a576108196127a4565b5b85600181111561082d5761082c6127a4565b5b03610bba5760005b8180549050811015610bb45760006001826108509190612d6f565b90505b8280549050811015610ba05782818154811061087257610871612e45565b5b90600052602060002090600602016004015483838154811061089757610896612e45565b5b9060005260206000209060060201600401541015610b8d5760008383815481106108c4576108c3612e45565b5b90600052602060002090600602016040518060e0016040529081600082015481526020016001820160009054906101000a900473ffffffffffffffffffffffffffffffffffffffff1673ffffffffffffffffffffffffffffffffffffffff1673ffffffffffffffffffffffffffffffffffffffff1681526020016001820160149054906101000a900460ff166001811115610962576109616127a4565b5b6001811115610974576109736127a4565b5b815260200160028201548152602001600382015481526020016004820154815260200160058201548152505090508382815481106109b5576109b4612e45565b5b90600052602060002090600602018484815481106109d6576109d5612e45565b5b9060005260206000209060060201600082015481600001556001820160009054906101000a900473ffffffffffffffffffffffffffffffffffffffff168160010160006101000a81548173ffffffffffffffffffffffffffffffffffffffff021916908373ffffffffffffffffffffffffffffffffffffffff1602179055506001820160149054906101000a900460ff168160010160146101000a81548160ff02191690836001811115610a8d57610a8c6127a4565b5b02179055506002820154816002015560038201548160030155600482015481600401556005820154816005015590505080848381548110610ad157610ad0612e45565b5b90600052602060002090600602016000820151816000015560208201518160010160006101000a81548173ffffffffffffffffffffffffffffffffffffffff021916908373ffffffffffffffffffffffffffffffffffffffff16021790555060408201518160010160146101000a81548160ff02191690836001811115610b5b57610b5a6127a4565b5b0217905550606082015181600201556080820151816003015560a0820151816004015560c08201518160050155905050505b8080610b9890612dfd565b915050610853565b508080610bac90612dfd565b915050610835565b50610f6a565b600180811115610bcd57610bcc6127a4565b5b856001811115610be057610bdf6127a4565b5b03610f695760005b8180549050811015610f67576000600182610c039190612d6f565b90505b8280549050811015610f5357828181548110610c2557610c24612e45565b5b906000526020600020906006020160040154838381548110610c4a57610c49612e45565b5b9060005260206000209060060201600401541115610f40576000838381548110610c7757610c76612e45565b5b90600052602060002090600602016040518060e0016040529081600082015481526020016001820160009054906101000a900473ffffffffffffffffffffffffffffffffffffffff1673ffffffffffffffffffffffffffffffffffffffff1673ffffffffffffffffffffffffffffffffffffffff1681526020016001820160149054906101000a900460ff166001811115610d1557610d146127a4565b5b6001811115610d2757610d266127a4565b5b81526020016002820154815260200160038201548152602001600482015481526020016005820154815250509050838281548110610d6857610d67612e45565b5b9060005260206000209060060201848481548110610d8957610d88612e45565b5b9060005260206000209060060201600082015481600001556001820160009054906101000a900473ffffffffffffffffffffffffffffffffffffffff168160010160006101000a81548173ffffffffffffffffffffffffffffffffffffffff021916908373ffffffffffffffffffffffffffffffffffffffff1602179055506001820160149054906101000a900460ff168160010160146101000a81548160ff02191690836001811115610e4057610e3f6127a4565b5b02179055506002820154816002015560038201548160030155600482015481600401556005820154816005015590505080848381548110610e8457610e83612e45565b5b90600052602060002090600602016000820151816000015560208201518160010160006101000a81548173ffffffffffffffffffffffffffffffffffffffff021916908373ffffffffffffffffffffffffffffffffffffffff16021790555060408201518160010160146101000a81548160ff02191690836001811115610f0e57610f0d6127a4565b5b0217905550606082015181600201556080820151816003015560a0820151816004015560c08201518160050155905050505b8080610f4b90612dfd565b915050610c06565b508080610f5f90612dfd565b915050610be8565b505b5b5050505050565b610f79612546565b610f8360006125c4565b565b60008060009054906101000a900473ffffffffffffffffffffffffffffffffffffffff16905090565b610fb6612546565b60405180604001604052808381526020018273ffffffffffffffffffffffffffffffffffffffff16815250600160008481526020019081526020016000206000820151816000015560208201518160010160006101000a81548173ffffffffffffffffffffffffffffffffffffffff021916908373ffffffffffffffffffffffffffffffffffffffff16021790555090505060028290806001815401808255809150506001900390600052602060002001600090919091909150555050565b600080600181111561108a576110896127a4565b5b84600181111561109d5761109c6127a4565b5b0361115a576000600360003373ffffffffffffffffffffffffffffffffffffffff1673ffffffffffffffffffffffffffffffffffffffff16815260200190815260200160002060007f455448000000000000000000000000000000000000000000000000000000000081526020019081526020016000205411611155576040517f08c379a000000000000000000000000000000000000000000000000000000000815260040161114c90612ef7565b60405180910390fd5b600190505b60018081111561116d5761116c6127a4565b5b8460018111156111805761117f6127a4565b5b0361126057600082116111c8576040517f08c379a00000000000000000000000000000000000000000000000000000000081526004016111bf90612f89565b60405180910390fd5b81600360003373ffffffffffffffffffffffffffffffffffffffff1673ffffffffffffffffffffffffffffffffffffffff168152602001908152602001600020600085815260200190815260200160002054101561125b576040517f08c379a000000000000000000000000000000000000000000000000000000000815260040161125290612ff5565b60405180910390fd5b600090505b600060056000858152602001908152602001600020600083815260200190815260200160002090506000805b82805490508110801561129e57508482105b15611b32577fe2ffd9fada7f31ae164abae576c09bdbdae8f32e873e681ea8ed854a903ab58a8382815481106112d7576112d6612e45565b5b90600052602060002090600602016040516112f291906131ae565b60405180910390a16000828661130891906131c9565b9050600084838154811061131f5761131e612e45565b5b90600052602060002090600602016005015485848154811061134457611343612e45565b5b90600052602060002090600602016003015461136091906131c9565b90506000808383101561137557829150611379565b8391505b81866113859190612d6f565b95508187868154811061139b5761139a612e45565b5b906000526020600020906006020160050160008282546113bb9190612d6f565b925050819055508685815481106113d5576113d4612e45565b5b906000526020600020906006020160040154826113f29190612da3565b905060006001811115611408576114076127a4565b5b8b600181111561141b5761141a6127a4565b5b0361173c57600360003373ffffffffffffffffffffffffffffffffffffffff1673ffffffffffffffffffffffffffffffffffffffff16815260200190815260200160002060007f45544800000000000000000000000000000000000000000000000000000000008152602001908152602001600020548111156114d3576040517f08c379a00000000000000000000000000000000000000000000000000000000081526004016114ca9061326f565b60405180910390fd5b81600360003373ffffffffffffffffffffffffffffffffffffffff1673ffffffffffffffffffffffffffffffffffffffff16815260200190815260200160002060008c815260200190815260200160002060008282546115339190612d6f565b9250508190555080600360003373ffffffffffffffffffffffffffffffffffffffff1673ffffffffffffffffffffffffffffffffffffffff16815260200190815260200160002060007f4554480000000000000000000000000000000000000000000000000000000000815260200190815260200160002060008282546115ba91906131c9565b9250508190555081600360008988815481106115d9576115d8612e45565b5b906000526020600020906006020160010160009054906101000a900473ffffffffffffffffffffffffffffffffffffffff1673ffffffffffffffffffffffffffffffffffffffff1673ffffffffffffffffffffffffffffffffffffffff16815260200190815260200160002060008c8152602001908152602001600020600082825461166591906131c9565b92505081905550806003600089888154811061168457611683612e45565b5b906000526020600020906006020160010160009054906101000a900473ffffffffffffffffffffffffffffffffffffffff1673ffffffffffffffffffffffffffffffffffffffff1673ffffffffffffffffffffffffffffffffffffffff16815260200190815260200160002060007f4554480000000000000000000000000000000000000000000000000000000000815260200190815260200160002060008282546117309190612d6f565b92505081905550611ac4565b60018081111561174f5761174e6127a4565b5b8b6001811115611762576117616127a4565b5b03611ac3576003600088878154811061177e5761177d612e45565b5b906000526020600020906006020160010160009054906101000a900473ffffffffffffffffffffffffffffffffffffffff1673ffffffffffffffffffffffffffffffffffffffff1673ffffffffffffffffffffffffffffffffffffffff16815260200190815260200160002060007f455448000000000000000000000000000000000000000000000000000000000081526020019081526020016000205481111561185e576040517f08c379a000000000000000000000000000000000000000000000000000000000815260040161185590613327565b60405180910390fd5b81600360003373ffffffffffffffffffffffffffffffffffffffff1673ffffffffffffffffffffffffffffffffffffffff16815260200190815260200160002060008c815260200190815260200160002060008282546118be91906131c9565b9250508190555080600360003373ffffffffffffffffffffffffffffffffffffffff1673ffffffffffffffffffffffffffffffffffffffff16815260200190815260200160002060007f4554480000000000000000000000000000000000000000000000000000000000815260200190815260200160002060008282546119459190612d6f565b92505081905550816003600089888154811061196457611963612e45565b5b906000526020600020906006020160010160009054906101000a900473ffffffffffffffffffffffffffffffffffffffff1673ffffffffffffffffffffffffffffffffffffffff1673ffffffffffffffffffffffffffffffffffffffff16815260200190815260200160002060008c815260200190815260200160002060008282546119f09190612d6f565b925050819055508060036000898881548110611a0f57611a0e612e45565b5b906000526020600020906006020160010160009054906101000a900473ffffffffffffffffffffffffffffffffffffffff1673ffffffffffffffffffffffffffffffffffffffff1673ffffffffffffffffffffffffffffffffffffffff16815260200190815260200160002060007f455448000000000000000000000000000000000000000000000000000000000081526020019081526020016000206000828254611abb91906131c9565b925050819055505b5b7f5605fb8e33f3064ea6f30a5c4c2fe8aca3e5b3c5ad58d584607e4b04629aab6d878681548110611af857611af7612e45565b5b9060005260206000209060060201604051611b1391906131ae565b60405180910390a1505050508080611b2a90612dfd565b91505061128c565b505b60008280549050118015611b91575081600081548110611b5757611b56612e45565b5b90600052602060002090600602016003015482600081548110611b7d57611b7c612e45565b5b906000526020600020906006020160050154145b15611de55760005b60018380549050611baa91906131c9565b811015611ceb5782600182611bbf9190612d6f565b81548110611bd057611bcf612e45565b5b9060005260206000209060060201838281548110611bf157611bf0612e45565b5b9060005260206000209060060201600082015481600001556001820160009054906101000a900473ffffffffffffffffffffffffffffffffffffffff168160010160006101000a81548173ffffffffffffffffffffffffffffffffffffffff021916908373ffffffffffffffffffffffffffffffffffffffff1602179055506001820160149054906101000a900460ff168160010160146101000a81548160ff02191690836001811115611ca857611ca76127a4565b5b0217905550600282015481600201556003820154816003015560048201548160040155600582015481600501559050508080611ce390612dfd565b915050611b99565b507f45cefc355af350a39f2375258a022926e118e4f19ae801fd71452e92117a9bee8260018480549050611d1f91906131c9565b81548110611d3057611d2f612e45565b5b9060005260206000209060060201604051611d4b91906131ae565b60405180910390a181805480611d6457611d63613347565b5b60019003818190600052602060002090600602016000808201600090556001820160006101000a81549073ffffffffffffffffffffffffffffffffffffffff02191690556001820160146101000a81549060ff0219169055600282016000905560038201600090556004820160009055600582016000905550509055611b34565b505050505050565b60028181548110611dfd57600080fd5b906000526020600020016000915090505481565b80600073ffffffffffffffffffffffffffffffffffffffff166001600083815260200190815260200160002060010160009054906101000a900473ffffffffffffffffffffffffffffffffffffffff1673ffffffffffffffffffffffffffffffffffffffff1603611eb7576040517f08c379a0000000000000000000000000000000000000000000000000000000008152600401611eae906133c2565b60405180910390fd5b82600360003373ffffffffffffffffffffffffffffffffffffffff1673ffffffffffffffffffffffffffffffffffffffff1681526020019081526020016000206000848152602001908152602001600020541015611f4a576040517f08c379a0000000000000000000000000000000000000000000000000000000008152600401611f419061342e565b60405180910390fd5b82600360003373ffffffffffffffffffffffffffffffffffffffff1673ffffffffffffffffffffffffffffffffffffffff16815260200190815260200160002060008481526020019081526020016000206000828254611faa91906131c9565b925050819055506001600083815260200190815260200160002060010160009054906101000a900473ffffffffffffffffffffffffffffffffffffffff1673ffffffffffffffffffffffffffffffffffffffff1663a9059cbb33856040518363ffffffff1660e01b815260040161202292919061344e565b6020604051808303816000875af1158015612041573d6000803e3d6000fd5b505050506040513d601f19601f8201168201806040525081019061206591906134af565b50505050565b6060600560008481526020019081526020016000206000836001811115612095576120946127a4565b5b8152602001908152602001600020805480602002602001604051908101604052809291908181526020016000905b828210156121b857838290600052602060002090600602016040518060e0016040529081600082015481526020016001820160009054906101000a900473ffffffffffffffffffffffffffffffffffffffff1673ffffffffffffffffffffffffffffffffffffffff1673ffffffffffffffffffffffffffffffffffffffff1681526020016001820160149054906101000a900460ff16600181111561216b5761216a6127a4565b5b600181111561217d5761217c6127a4565b5b8152602001600282015481526020016003820154815260200160048201548152602001600582015481525050815260200190600101906120c3565b50505050905092915050565b80600073ffffffffffffffffffffffffffffffffffffffff166001600083815260200190815260200160002060010160009054906101000a900473ffffffffffffffffffffffffffffffffffffffff1673ffffffffffffffffffffffffffffffffffffffff160361226a576040517f08c379a0000000000000000000000000000000000000000000000000000000008152600401612261906133c2565b60405180910390fd5b60008310156122ae576040517f08c379a00000000000000000000000000000000000000000000000000000000081526004016122a590613528565b60405180910390fd5b826001600084815260200190815260200160002060010160009054906101000a900473ffffffffffffffffffffffffffffffffffffffff1673ffffffffffffffffffffffffffffffffffffffff166370a08231336040518263ffffffff1660e01b815260040161231e9190612a02565b602060405180830381865afa15801561233b573d6000803e3d6000fd5b505050506040513d601f19601f8201168201806040525081019061235f919061355d565b10156123a0576040517f08c379a0000000000000000000000000000000000000000000000000000000008152600401612397906135d6565b60405180910390fd5b6001600083815260200190815260200160002060010160009054906101000a900473ffffffffffffffffffffffffffffffffffffffff1673ffffffffffffffffffffffffffffffffffffffff166323b872dd3330866040518463ffffffff1660e01b8152600401612413939291906135f6565b6020604051808303816000875af1158015612432573d6000803e3d6000fd5b505050506040513d601f19601f8201168201806040525081019061245691906134af565b5082600360003373ffffffffffffffffffffffffffffffffffffffff1673ffffffffffffffffffffffffffffffffffffffff168152602001908152602001600020600084815260200190815260200160002060008282546124b79190612d6f565b92505081905550505050565b6124cb612546565b600073ffffffffffffffffffffffffffffffffffffffff168173ffffffffffffffffffffffffffffffffffffffff160361253a576040517f08c379a00000000000000000000000000000000000000000000000000000000081526004016125319061369f565b60405180910390fd5b612543816125c4565b50565b61254e612688565b73ffffffffffffffffffffffffffffffffffffffff1661256c610f85565b73ffffffffffffffffffffffffffffffffffffffff16146125c2576040517f08c379a00000000000000000000000000000000000000000000000000000000081526004016125b99061370b565b60405180910390fd5b565b60008060009054906101000a900473ffffffffffffffffffffffffffffffffffffffff169050816000806101000a81548173ffffffffffffffffffffffffffffffffffffffff021916908373ffffffffffffffffffffffffffffffffffffffff1602179055508173ffffffffffffffffffffffffffffffffffffffff168173ffffffffffffffffffffffffffffffffffffffff167f8be0079c531659141344cd1fd0a4f28419497f9722a3daafe3b4186f6b6457e060405160405180910390a35050565b600033905090565b600080fd5b6000819050919050565b6126a881612695565b81146126b357600080fd5b50565b6000813590506126c58161269f565b92915050565b6000819050919050565b6126de816126cb565b81146126e957600080fd5b50565b6000813590506126fb816126d5565b92915050565b60008060006060848603121561271a57612719612690565b5b6000612728868287016126b6565b9350506020612739868287016126ec565b925050604061274a868287016126ec565b9150509250925092565b61275d816126cb565b82525050565b600073ffffffffffffffffffffffffffffffffffffffff82169050919050565b600061278e82612763565b9050919050565b61279e81612783565b82525050565b7f4e487b7100000000000000000000000000000000000000000000000000000000600052602160045260246000fd5b600281106127e4576127e36127a4565b5b50565b60008190506127f5826127d3565b919050565b6000612805826127e7565b9050919050565b612815816127fa565b82525050565b61282481612695565b82525050565b600060e08201905061283f600083018a612754565b61284c6020830189612795565b612859604083018861280c565b612866606083018761281b565b6128736080830186612754565b61288060a0830185612754565b61288d60c0830184612754565b98975050505050505050565b6128a281612783565b81146128ad57600080fd5b50565b6000813590506128bf81612899565b92915050565b600080604083850312156128dc576128db612690565b5b60006128ea858286016128b0565b92505060206128fb858286016126b6565b9150509250929050565b600060208201905061291a6000830184612754565b92915050565b60006020828403121561293657612935612690565b5b6000612944848285016126b6565b91505092915050565b6000604082019050612962600083018561281b565b61296f6020830184612795565b9392505050565b6002811061298357600080fd5b50565b60008135905061299581612976565b92915050565b600080600080608085870312156129b5576129b4612690565b5b60006129c387828801612986565b94505060206129d4878288016126b6565b93505060406129e5878288016126ec565b92505060606129f6878288016126ec565b91505092959194509250565b6000602082019050612a176000830184612795565b92915050565b60008060408385031215612a3457612a33612690565b5b6000612a42858286016126b6565b9250506020612a53858286016128b0565b9150509250929050565b600080600060608486031215612a7657612a75612690565b5b6000612a8486828701612986565b9350506020612a95868287016126b6565b9250506040612aa6868287016126ec565b9150509250925092565b600060208284031215612ac657612ac5612690565b5b6000612ad4848285016126ec565b91505092915050565b6000602082019050612af2600083018461281b565b92915050565b60008060408385031215612b0f57612b0e612690565b5b6000612b1d858286016126ec565b9250506020612b2e858286016126b6565b9150509250929050565b60008060408385031215612b4f57612b4e612690565b5b6000612b5d858286016126b6565b9250506020612b6e85828601612986565b9150509250929050565b600081519050919050565b600082825260208201905092915050565b6000819050602082019050919050565b612bad816126cb565b82525050565b612bbc81612783565b82525050565b612bcb816127fa565b82525050565b612bda81612695565b82525050565b60e082016000820151612bf66000850182612ba4565b506020820151612c096020850182612bb3565b506040820151612c1c6040850182612bc2565b506060820151612c2f6060850182612bd1565b506080820151612c426080850182612ba4565b5060a0820151612c5560a0850182612ba4565b5060c0820151612c6860c0850182612ba4565b50505050565b6000612c7a8383612be0565b60e08301905092915050565b6000602082019050919050565b6000612c9e82612b78565b612ca88185612b83565b9350612cb383612b94565b8060005b83811015612ce4578151612ccb8882612c6e565b9750612cd683612c86565b925050600181019050612cb7565b5085935050505092915050565b60006020820190508181036000830152612d0b8184612c93565b905092915050565b600060208284031215612d2957612d28612690565b5b6000612d37848285016128b0565b91505092915050565b7f4e487b7100000000000000000000000000000000000000000000000000000000600052601160045260246000fd5b6000612d7a826126cb565b9150612d85836126cb565b9250828201905080821115612d9d57612d9c612d40565b5b92915050565b6000612dae826126cb565b9150612db9836126cb565b9250817fffffffffffffffffffffffffffffffffffffffffffffffffffffffffffffffff0483118215151615612df257612df1612d40565b5b828202905092915050565b6000612e08826126cb565b91507fffffffffffffffffffffffffffffffffffffffffffffffffffffffffffffffff8203612e3a57612e39612d40565b5b600182019050919050565b7f4e487b7100000000000000000000000000000000000000000000000000000000600052603260045260246000fd5b600082825260208201905092915050565b7f46756e64206973207a65726f3a2063616e6e6f7420637265617465206d61726b60008201527f6574206f72646572207769746820302045544800000000000000000000000000602082015250565b6000612ee1603383612e74565b9150612eec82612e85565b604082019050919050565b60006020820190508181036000830152612f1081612ed4565b9050919050565b7f43616e6e6f7420637265617465203020616d6f756e74206d61726b6574206f7260008201527f6465720000000000000000000000000000000000000000000000000000000000602082015250565b6000612f73602383612e74565b9150612f7e82612f17565b604082019050919050565b60006020820190508181036000830152612fa281612f66565b9050919050565b7f496e73756666696369656e7420746f6b656e2062616c616e6365000000000000600082015250565b6000612fdf601a83612e74565b9150612fea82612fa9565b602082019050919050565b6000602082019050818103600083015261300e81612fd2565b9050919050565b60008160001c9050919050565b6000819050919050565b600061303f61303a83613015565b613022565b9050919050565b600073ffffffffffffffffffffffffffffffffffffffff82169050919050565b600061307961307483613015565b613046565b9050919050565b60008160a01c9050919050565b600060ff82169050919050565b60006130ad6130a883613080565b61308d565b9050919050565b6000819050919050565b60006130d16130cc83613015565b6130b4565b9050919050565b60e0820160008083015490506130ed8161302c565b6130fa6000860182612ba4565b506001830154905061310b81613066565b6131186020860182612bb3565b506131228161309a565b61312f6040860182612bc2565b5060028301549050613140816130be565b61314d6060860182612bd1565b506003830154905061315e8161302c565b61316b6080860182612ba4565b506004830154905061317c8161302c565b61318960a0860182612ba4565b506005830154905061319a8161302c565b6131a760c0860182612ba4565b5050505050565b600060e0820190506131c360008301846130d8565b92915050565b60006131d4826126cb565b91506131df836126cb565b92508282039050818111156131f7576131f6612d40565b5b92915050565b7f496e73756666696369656e742045544820746f20636f7665722074686520627560008201527f79206d61726b6574206f72646572000000000000000000000000000000000000602082015250565b6000613259602e83612e74565b9150613264826131fd565b604082019050919050565b600060208201905081810360008301526132888161324c565b9050919050565b7f4f776e6572206f6620627579206c696d6974206f726465722068617320696e7360008201527f756666696369656e742045544820746f20636f766572207468652073656c6c2060208201527f6d61726b6574206f726465720000000000000000000000000000000000000000604082015250565b6000613311604c83612e74565b915061331c8261328f565b606082019050919050565b6000602082019050818103600083015261334081613304565b9050919050565b7f4e487b7100000000000000000000000000000000000000000000000000000000600052603160045260246000fd5b7f546f6b656e20646f6573206e6f74206578697374000000000000000000000000600082015250565b60006133ac601483612e74565b91506133b782613376565b602082019050919050565b600060208201905081810360008301526133db8161339f565b9050919050565b7f42616c616e6365206e6f742073756666696369656e7400000000000000000000600082015250565b6000613418601683612e74565b9150613423826133e2565b602082019050919050565b600060208201905081810360008301526134478161340b565b9050919050565b60006040820190506134636000830185612795565b6134706020830184612754565b9392505050565b60008115159050919050565b61348c81613477565b811461349757600080fd5b50565b6000815190506134a981613483565b92915050565b6000602082840312156134c5576134c4612690565b5b60006134d38482850161349a565b91505092915050565b7f4465706f736974696e6720616d6f756e74206973207a65726f00000000000000600082015250565b6000613512601983612e74565b915061351d826134dc565b602082019050919050565b6000602082019050818103600083015261354181613505565b9050919050565b600081519050613557816126d5565b92915050565b60006020828403121561357357613572612690565b5b600061358184828501613548565b91505092915050565b7f496e6666696369656e7420616d6f756e7420746f206465706f73697400000000600082015250565b60006135c0601c83612e74565b91506135cb8261358a565b602082019050919050565b600060208201905081810360008301526135ef816135b3565b9050919050565b600060608201905061360b6000830186612795565b6136186020830185612795565b6136256040830184612754565b949350505050565b7f4f776e61626c653a206e6577206f776e657220697320746865207a65726f206160008201527f6464726573730000000000000000000000000000000000000000000000000000602082015250565b6000613689602683612e74565b91506136948261362d565b604082019050919050565b600060208201905081810360008301526136b88161367c565b9050919050565b7f4f776e61626c653a2063616c6c6572206973206e6f7420746865206f776e6572600082015250565b60006136f5602083612e74565b9150613700826136bf565b602082019050919050565b60006020820190508181036000830152613724816136e8565b905091905056fea2646970667358221220d4d473f7fbfa4c3c326aafc70ba503d431a397b814227757eb059aeeb416857e64736f6c63430008100033",
  "immutableReferences": {},
  "source": "pragma solidity >=0.8.0;\n\nimport \"./wallet.sol\";\n\ncontract Dex is Wallet {\n    enum Side {\n        BUY,\n        SELL\n    }\n    struct Order {\n        uint256 id;\n        address trader;\n        Side side;\n        bytes32 ticker;\n        uint256 amount;\n        uint256 price;\n        uint256 filled;\n    }\n\n    uint256 public nextOrderId = 0;\n\n    mapping(bytes32 => mapping(uint256 => Order[])) public orderBook;\n\n    event orderPopped(Order);\n    event orderBeforeProcessed(Order);\n    event orderAfterProcessed(Order);\n\n    function getOrderBook(bytes32 ticker, Side side)\n        public\n        view\n        returns (Order[] memory)\n    {\n        return orderBook[ticker][uint256(side)];\n    }\n\n    function createLimitOrder(\n        Side side,\n        bytes32 ticker,\n        uint256 amount,\n        uint256 price\n    ) external {\n        if (side == Side.BUY) {\n            require(balances[msg.sender][\"ETH\"] >= amount * price);\n        }\n        if (side == Side.SELL) {\n            require(balances[msg.sender][\"LINK\"] >= amount);\n        }\n        Order[] storage orders = orderBook[ticker][uint256(side)];\n        orders.push(\n            Order(nextOrderId, msg.sender, side, ticker, amount, price, 0)\n        );\n        nextOrderId++;\n\n        //Bubble sort\n        if (side == Side.BUY) {\n            for (uint256 i = 0; i < orders.length; i++) {\n                for (uint256 j = i + 1; j < orders.length; j++) {\n                    if (orders[i].price < orders[j].price) {\n                        Order memory tmpOrder = orders[i];\n                        orders[i] = orders[j];\n                        orders[j] = tmpOrder;\n                    }\n                }\n            }\n        } else if (side == Side.SELL) {\n            for (uint256 i = 0; i < orders.length; i++) {\n                for (uint256 j = i + 1; j < orders.length; j++) {\n                    if (orders[i].price > orders[j].price) {\n                        Order memory tmpOrder = orders[i];\n                        orders[i] = orders[j];\n                        orders[j] = tmpOrder;\n                    }\n                }\n            }\n        }\n    }\n\n    function createMarketOrder(\n        Side side,\n        bytes32 ticker,\n        uint256 amount\n    ) external {\n        uint256 orderBookSide;\n        // require enough ETH for market buy orders\n        if (side == Side.BUY) {\n            require(\n                balances[msg.sender][\"ETH\"] > 0,\n                \"Fund is zero: cannot create market order with 0 ETH\"\n            );\n            orderBookSide = 1;\n        }\n        // require enough token for market sell orders\n        if (side == Side.SELL) {\n            require(amount > 0, \"Cannot create 0 amount market order\");\n            require(\n                balances[msg.sender][ticker] >= amount,\n                \"Insufficient token balance\"\n            );\n            orderBookSide = 0;\n        }\n        Order[] storage orders = orderBook[ticker][orderBookSide];\n        uint256 totalFilled = 0; //amount of token filled in market order\n\n        for (uint256 i = 0; i < orders.length && totalFilled < amount; i++) {\n            emit orderBeforeProcessed(orders[i]);\n            uint256 leftToFill = amount - totalFilled;\n            uint256 availableToFill = orders[i].amount - orders[i].filled;\n            uint256 filled = 0;\n            uint256 cost;\n            if (availableToFill < leftToFill) {\n                // Sweep the limit order\n                filled = availableToFill;\n            } else {\n                //Buy only the amount need\n                filled = leftToFill;\n            }\n            totalFilled += filled;\n            orders[i].filled += filled;\n            cost = filled * orders[i].price;\n\n            //Execute the trade & shift balances between buyer/seller\n            if (side == Side.BUY) {\n                //Verify that buyer has enough ETH to cover the purchase\n                require(\n                    cost <= balances[msg.sender][\"ETH\"],\n                    \"Insufficient ETH to cover the buy market order\"\n                );\n                balances[msg.sender][ticker] += filled;\n                balances[msg.sender][\"ETH\"] -= cost;\n                balances[orders[i].trader][ticker] -= filled;\n                balances[orders[i].trader][\"ETH\"] += cost;\n            } else if (side == Side.SELL) {\n                //Verify that buyer has enough ETH to cover the purchase\n                require(\n                    cost <= balances[orders[i].trader][\"ETH\"],\n                    \"Owner of buy limit order has insufficient ETH to cover the sell market order\"\n                );\n                balances[msg.sender][ticker] -= filled;\n                balances[msg.sender][\"ETH\"] += cost;\n                balances[orders[i].trader][ticker] += filled;\n                balances[orders[i].trader][\"ETH\"] -= cost;\n            }\n            emit orderAfterProcessed(orders[i]);\n        }\n\n        //TODO Loop through the orderbook and remove 100% filled orders\n        while (orders.length > 0 && orders[0].filled == orders[0].amount) {\n            for (uint256 i = 0; i < orders.length - 1; i++) {\n                orders[i] = orders[i + 1];\n            }\n            emit orderPopped(orders[orders.length - 1]);\n            orders.pop();\n        }\n    }\n}\n",
  "sourcePath": "/Users/anguschiu/dev/ethereum-201/dex/contracts/dex.sol",
  "compiler": {
    "name": "solc",
    "version": "0.8.16+commit.07a7930e.Emscripten.clang"
  },
  "schemaVersion": "3.4.9",
  "updatedAt": "2022-09-26T10:19:51.373Z",
  "networkType": "ethereum",
  "devdoc": {
    "kind": "dev",
    "methods": {
      "owner()": {
        "details": "Returns the address of the current owner."
      },
      "renounceOwnership()": {
        "details": "Leaves the contract without owner. It will not be possible to call `onlyOwner` functions anymore. Can only be called by the current owner. NOTE: Renouncing ownership will leave the contract without an owner, thereby removing any functionality that is only available to the owner."
      },
      "transferOwnership(address)": {
        "details": "Transfers ownership of the contract to a new account (`newOwner`). Can only be called by the current owner."
      }
    },
    "version": 1
  },
  "userdoc": {
    "kind": "user",
    "methods": {},
    "version": 1
  }
}