{
  "contractName": "Wallet",
  "abi": [
    {
      "anonymous": false,
      "inputs": [
        {
          "indexed": true,
          "internalType": "address",
          "name": "previousOwner",
          "type": "address"
        },
        {
          "indexed": true,
          "internalType": "address",
          "name": "newOwner",
          "type": "address"
        }
      ],
      "name": "OwnershipTransferred",
      "type": "event"
    },
    {
      "inputs": [
        {
          "internalType": "address",
          "name": "",
          "type": "address"
        },
        {
          "internalType": "bytes32",
          "name": "",
          "type": "bytes32"
        }
      ],
      "name": "balances",
      "outputs": [
        {
          "internalType": "uint256",
          "name": "",
          "type": "uint256"
        }
      ],
      "stateMutability": "view",
      "type": "function"
    },
    {
      "inputs": [],
      "name": "owner",
      "outputs": [
        {
          "internalType": "address",
          "name": "",
          "type": "address"
        }
      ],
      "stateMutability": "view",
      "type": "function"
    },
    {
      "inputs": [],
      "name": "renounceOwnership",
      "outputs": [],
      "stateMutability": "nonpayable",
      "type": "function"
    },
    {
      "inputs": [
        {
          "internalType": "uint256",
          "name": "",
          "type": "uint256"
        }
      ],
      "name": "tokenList",
      "outputs": [
        {
          "internalType": "bytes32",
          "name": "",
          "type": "bytes32"
        }
      ],
      "stateMutability": "view",
      "type": "function"
    },
    {
      "inputs": [
        {
          "internalType": "bytes32",
          "name": "",
          "type": "bytes32"
        }
      ],
      "name": "tokenMapping",
      "outputs": [
        {
          "internalType": "bytes32",
          "name": "ticker",
          "type": "bytes32"
        },
        {
          "internalType": "address",
          "name": "tokenAddress",
          "type": "address"
        }
      ],
      "stateMutability": "view",
      "type": "function"
    },
    {
      "inputs": [
        {
          "internalType": "address",
          "name": "newOwner",
          "type": "address"
        }
      ],
      "name": "transferOwnership",
      "outputs": [],
      "stateMutability": "nonpayable",
      "type": "function"
    },
    {
      "inputs": [
        {
          "internalType": "bytes32",
          "name": "ticker",
          "type": "bytes32"
        },
        {
          "internalType": "address",
          "name": "tokenAddress",
          "type": "address"
        }
      ],
      "name": "addToken",
      "outputs": [],
      "stateMutability": "nonpayable",
      "type": "function"
    },
    {
      "inputs": [],
      "name": "depositEth",
      "outputs": [],
      "stateMutability": "payable",
      "type": "function"
    },
    {
      "inputs": [
        {
          "internalType": "uint256",
          "name": "amount",
          "type": "uint256"
        },
        {
          "internalType": "bytes32",
          "name": "ticker",
          "type": "bytes32"
        }
      ],
      "name": "deposit",
      "outputs": [],
      "stateMutability": "nonpayable",
      "type": "function"
    },
    {
      "inputs": [
        {
          "internalType": "uint256",
          "name": "amount",
          "type": "uint256"
        },
        {
          "internalType": "bytes32",
          "name": "ticker",
          "type": "bytes32"
        }
      ],
      "name": "withdraw",
      "outputs": [],
      "stateMutability": "nonpayable",
      "type": "function"
    }
  ],
  "bytecode": "0x608060405234801561001057600080fd5b5061002d61002261003260201b60201c565b61003a60201b60201c565b6100fe565b600033905090565b60008060009054906101000a900473ffffffffffffffffffffffffffffffffffffffff169050816000806101000a81548173ffffffffffffffffffffffffffffffffffffffff021916908373ffffffffffffffffffffffffffffffffffffffff1602179055508173ffffffffffffffffffffffffffffffffffffffff168173ffffffffffffffffffffffffffffffffffffffff167f8be0079c531659141344cd1fd0a4f28419497f9722a3daafe3b4186f6b6457e060405160405180910390a35050565b6112ce8061010d6000396000f3fe6080604052600436106100915760003560e01c80639776aacf116100595780639776aacf1461015d5780639ead722214610186578063a8d2021a146101c3578063c9630cb0146101ec578063f2fde38b1461021557610091565b80631f14df6914610096578063439370b1146100d3578063667cb4ba146100dd578063715018a61461011b5780638da5cb5b14610132575b600080fd5b3480156100a257600080fd5b506100bd60048036038101906100b89190610c17565b61023e565b6040516100ca9190610c70565b60405180910390f35b6100db610263565b005b3480156100e957600080fd5b5061010460048036038101906100ff9190610c8b565b6102ec565b604051610112929190610cd6565b60405180910390f35b34801561012757600080fd5b50610130610330565b005b34801561013e57600080fd5b50610147610344565b6040516101549190610cff565b60405180910390f35b34801561016957600080fd5b50610184600480360381019061017f9190610d1a565b61036d565b005b34801561019257600080fd5b506101ad60048036038101906101a89190610d86565b610434565b6040516101ba9190610db3565b60405180910390f35b3480156101cf57600080fd5b506101ea60048036038101906101e59190610dce565b610458565b005b3480156101f857600080fd5b50610213600480360381019061020e9190610dce565b6106b2565b005b34801561022157600080fd5b5061023c60048036038101906102379190610e0e565b6109b1565b005b6003602052816000526040600020602052806000526040600020600091509150505481565b34600360003373ffffffffffffffffffffffffffffffffffffffff1673ffffffffffffffffffffffffffffffffffffffff16815260200190815260200160002060007f4554480000000000000000000000000000000000000000000000000000000000815260200190815260200160002060008282546102e39190610e6a565b92505081905550565b60016020528060005260406000206000915090508060000154908060010160009054906101000a900473ffffffffffffffffffffffffffffffffffffffff16905082565b610338610a34565b6103426000610ab2565b565b60008060009054906101000a900473ffffffffffffffffffffffffffffffffffffffff16905090565b610375610a34565b60405180604001604052808381526020018273ffffffffffffffffffffffffffffffffffffffff16815250600160008481526020019081526020016000206000820151816000015560208201518160010160006101000a81548173ffffffffffffffffffffffffffffffffffffffff021916908373ffffffffffffffffffffffffffffffffffffffff16021790555090505060028290806001815401808255809150506001900390600052602060002001600090919091909150555050565b6002818154811061044457600080fd5b906000526020600020016000915090505481565b80600073ffffffffffffffffffffffffffffffffffffffff166001600083815260200190815260200160002060010160009054906101000a900473ffffffffffffffffffffffffffffffffffffffff1673ffffffffffffffffffffffffffffffffffffffff16036104fe576040517f08c379a00000000000000000000000000000000000000000000000000000000081526004016104f590610efb565b60405180910390fd5b82600360003373ffffffffffffffffffffffffffffffffffffffff1673ffffffffffffffffffffffffffffffffffffffff1681526020019081526020016000206000848152602001908152602001600020541015610591576040517f08c379a000000000000000000000000000000000000000000000000000000000815260040161058890610f67565b60405180910390fd5b82600360003373ffffffffffffffffffffffffffffffffffffffff1673ffffffffffffffffffffffffffffffffffffffff168152602001908152602001600020600084815260200190815260200160002060008282546105f19190610f87565b925050819055506001600083815260200190815260200160002060010160009054906101000a900473ffffffffffffffffffffffffffffffffffffffff1673ffffffffffffffffffffffffffffffffffffffff1663a9059cbb33856040518363ffffffff1660e01b8152600401610669929190610fbb565b6020604051808303816000875af1158015610688573d6000803e3d6000fd5b505050506040513d601f19601f820116820180604052508101906106ac919061101c565b50505050565b80600073ffffffffffffffffffffffffffffffffffffffff166001600083815260200190815260200160002060010160009054906101000a900473ffffffffffffffffffffffffffffffffffffffff1673ffffffffffffffffffffffffffffffffffffffff1603610758576040517f08c379a000000000000000000000000000000000000000000000000000000000815260040161074f90610efb565b60405180910390fd5b600083101561079c576040517f08c379a000000000000000000000000000000000000000000000000000000000815260040161079390611095565b60405180910390fd5b826001600084815260200190815260200160002060010160009054906101000a900473ffffffffffffffffffffffffffffffffffffffff1673ffffffffffffffffffffffffffffffffffffffff166370a08231336040518263ffffffff1660e01b815260040161080c9190610cff565b602060405180830381865afa158015610829573d6000803e3d6000fd5b505050506040513d601f19601f8201168201806040525081019061084d91906110ca565b101561088e576040517f08c379a000000000000000000000000000000000000000000000000000000000815260040161088590611143565b60405180910390fd5b6001600083815260200190815260200160002060010160009054906101000a900473ffffffffffffffffffffffffffffffffffffffff1673ffffffffffffffffffffffffffffffffffffffff166323b872dd3330866040518463ffffffff1660e01b815260040161090193929190611163565b6020604051808303816000875af1158015610920573d6000803e3d6000fd5b505050506040513d601f19601f82011682018060405250810190610944919061101c565b5082600360003373ffffffffffffffffffffffffffffffffffffffff1673ffffffffffffffffffffffffffffffffffffffff168152602001908152602001600020600084815260200190815260200160002060008282546109a59190610e6a565b92505081905550505050565b6109b9610a34565b600073ffffffffffffffffffffffffffffffffffffffff168173ffffffffffffffffffffffffffffffffffffffff1603610a28576040517f08c379a0000000000000000000000000000000000000000000000000000000008152600401610a1f9061120c565b60405180910390fd5b610a3181610ab2565b50565b610a3c610b76565b73ffffffffffffffffffffffffffffffffffffffff16610a5a610344565b73ffffffffffffffffffffffffffffffffffffffff1614610ab0576040517f08c379a0000000000000000000000000000000000000000000000000000000008152600401610aa790611278565b60405180910390fd5b565b60008060009054906101000a900473ffffffffffffffffffffffffffffffffffffffff169050816000806101000a81548173ffffffffffffffffffffffffffffffffffffffff021916908373ffffffffffffffffffffffffffffffffffffffff1602179055508173ffffffffffffffffffffffffffffffffffffffff168173ffffffffffffffffffffffffffffffffffffffff167f8be0079c531659141344cd1fd0a4f28419497f9722a3daafe3b4186f6b6457e060405160405180910390a35050565b600033905090565b600080fd5b600073ffffffffffffffffffffffffffffffffffffffff82169050919050565b6000610bae82610b83565b9050919050565b610bbe81610ba3565b8114610bc957600080fd5b50565b600081359050610bdb81610bb5565b92915050565b6000819050919050565b610bf481610be1565b8114610bff57600080fd5b50565b600081359050610c1181610beb565b92915050565b60008060408385031215610c2e57610c2d610b7e565b5b6000610c3c85828601610bcc565b9250506020610c4d85828601610c02565b9150509250929050565b6000819050919050565b610c6a81610c57565b82525050565b6000602082019050610c856000830184610c61565b92915050565b600060208284031215610ca157610ca0610b7e565b5b6000610caf84828501610c02565b91505092915050565b610cc181610be1565b82525050565b610cd081610ba3565b82525050565b6000604082019050610ceb6000830185610cb8565b610cf86020830184610cc7565b9392505050565b6000602082019050610d146000830184610cc7565b92915050565b60008060408385031215610d3157610d30610b7e565b5b6000610d3f85828601610c02565b9250506020610d5085828601610bcc565b9150509250929050565b610d6381610c57565b8114610d6e57600080fd5b50565b600081359050610d8081610d5a565b92915050565b600060208284031215610d9c57610d9b610b7e565b5b6000610daa84828501610d71565b91505092915050565b6000602082019050610dc86000830184610cb8565b92915050565b60008060408385031215610de557610de4610b7e565b5b6000610df385828601610d71565b9250506020610e0485828601610c02565b9150509250929050565b600060208284031215610e2457610e23610b7e565b5b6000610e3284828501610bcc565b91505092915050565b7f4e487b7100000000000000000000000000000000000000000000000000000000600052601160045260246000fd5b6000610e7582610c57565b9150610e8083610c57565b9250828201905080821115610e9857610e97610e3b565b5b92915050565b600082825260208201905092915050565b7f546f6b656e20646f6573206e6f74206578697374000000000000000000000000600082015250565b6000610ee5601483610e9e565b9150610ef082610eaf565b602082019050919050565b60006020820190508181036000830152610f1481610ed8565b9050919050565b7f42616c616e6365206e6f742073756666696369656e7400000000000000000000600082015250565b6000610f51601683610e9e565b9150610f5c82610f1b565b602082019050919050565b60006020820190508181036000830152610f8081610f44565b9050919050565b6000610f9282610c57565b9150610f9d83610c57565b9250828203905081811115610fb557610fb4610e3b565b5b92915050565b6000604082019050610fd06000830185610cc7565b610fdd6020830184610c61565b9392505050565b60008115159050919050565b610ff981610fe4565b811461100457600080fd5b50565b60008151905061101681610ff0565b92915050565b60006020828403121561103257611031610b7e565b5b600061104084828501611007565b91505092915050565b7f4465706f736974696e6720616d6f756e74206973207a65726f00000000000000600082015250565b600061107f601983610e9e565b915061108a82611049565b602082019050919050565b600060208201905081810360008301526110ae81611072565b9050919050565b6000815190506110c481610d5a565b92915050565b6000602082840312156110e0576110df610b7e565b5b60006110ee848285016110b5565b91505092915050565b7f496e6666696369656e7420616d6f756e7420746f206465706f73697400000000600082015250565b600061112d601c83610e9e565b9150611138826110f7565b602082019050919050565b6000602082019050818103600083015261115c81611120565b9050919050565b60006060820190506111786000830186610cc7565b6111856020830185610cc7565b6111926040830184610c61565b949350505050565b7f4f776e61626c653a206e6577206f776e657220697320746865207a65726f206160008201527f6464726573730000000000000000000000000000000000000000000000000000602082015250565b60006111f6602683610e9e565b91506112018261119a565b604082019050919050565b60006020820190508181036000830152611225816111e9565b9050919050565b7f4f776e61626c653a2063616c6c6572206973206e6f7420746865206f776e6572600082015250565b6000611262602083610e9e565b915061126d8261122c565b602082019050919050565b6000602082019050818103600083015261129181611255565b905091905056fea26469706673582212201e3c21a963d1b52bcafac459e10df3c2ba422b3ac7731a9041796187381c93db64736f6c63430008100033",
  "immutableReferences": {},
  "source": "pragma solidity >=0.8.0;\n\nimport \"../node_modules/@openzeppelin/contracts/token/ERC20/IERC20.sol\";\nimport \"../node_modules/@openzeppelin/contracts/access/Ownable.sol\";\n\n// interface TokenContract {\n//     function totalSupply() external view returns (uint256);\n\n//     function transferFrom(\n//         address _from,\n//         address _to,\n//         uint256 _amount\n//     ) external returns (bool);\n// }\n\ncontract Wallet is Ownable {\n    struct Token {\n        bytes32 ticker;\n        address tokenAddress;\n    }\n    mapping(bytes32 => Token) public tokenMapping;\n    bytes32[] public tokenList;\n\n    // multiple mapping to store token balances for each address\n    mapping(address => mapping(bytes32 => uint256)) public balances;\n\n    modifier tokenExist(bytes32 ticker) {\n        // verify if the token address is leigt and initialized (zero if uninitalized)\n        require(\n            tokenMapping[ticker].tokenAddress != address(0),\n            \"Token does not exist\"\n        );\n        _;\n    }\n\n    // constructor() {\n    //     addToken(bytes32(\"ETH\"), address(this));\n    // }\n\n    function addToken(bytes32 ticker, address tokenAddress) public onlyOwner {\n        //external because not necessary to call within contract\n        tokenMapping[ticker] = Token(ticker, tokenAddress);\n        tokenList.push(ticker);\n    }\n\n    function depositEth() external payable {\n        balances[msg.sender][bytes32(\"ETH\")] += msg.value;\n    }\n\n    function deposit(uint256 amount, bytes32 ticker)\n        external\n        tokenExist(ticker)\n    {\n        require(amount >= 0, \"Depositing amount is zero\");\n\n        // check balance of token on msg.sender\n        require(\n            IERC20(tokenMapping[ticker].tokenAddress).balanceOf(msg.sender) >=\n                amount,\n            \"Infficient amount to deposit\"\n        );\n\n        // Check approve limit?\n\n        // transfer token from msg.sender to contract address\n        IERC20(tokenMapping[ticker].tokenAddress).transferFrom(\n            msg.sender,\n            address(this),\n            amount\n        );\n\n        // update balance\n        balances[msg.sender][ticker] += amount;\n    }\n\n    function withdraw(uint256 amount, bytes32 ticker)\n        external\n        tokenExist(ticker)\n    {\n        require(\n            balances[msg.sender][ticker] >= amount,\n            \"Balance not sufficient\"\n        );\n        balances[msg.sender][ticker] -= amount;\n        IERC20(tokenMapping[ticker].tokenAddress).transfer(msg.sender, amount);\n    }\n}\n",
  "sourcePath": "/Users/anguschiu/dev/ethereum-201/dex/contracts/wallet.sol",
  "compiler": {
    "name": "solc",
    "version": "0.8.16+commit.07a7930e.Emscripten.clang"
  },
  "schemaVersion": "3.4.9",
  "updatedAt": "2022-09-25T19:43:53.256Z",
  "networkType": "ethereum",
  "devdoc": {
    "kind": "dev",
    "methods": {
      "owner()": {
        "details": "Returns the address of the current owner."
      },
      "renounceOwnership()": {
        "details": "Leaves the contract without owner. It will not be possible to call `onlyOwner` functions anymore. Can only be called by the current owner. NOTE: Renouncing ownership will leave the contract without an owner, thereby removing any functionality that is only available to the owner."
      },
      "transferOwnership(address)": {
        "details": "Transfers ownership of the contract to a new account (`newOwner`). Can only be called by the current owner."
      }
    },
    "version": 1
  },
  "userdoc": {
    "kind": "user",
    "methods": {},
    "version": 1
  }
}